S00D000073696D6F6E2E73726563F1
S11300000C942A000C9447000C9447000C9447006D
S11300100C9447000C9447000C9447000C94470040
S11300200C9447000C9447000C9447000C94470030
S11300300C9447000C9447000C9447000C94470020
S11300400C9447000C9447000C9447000C94470010
S11300500C94470011241FBECFE5D8E0DEBFCDBF0E
S113006010E0A0E6B0E0E0EDF3E002C005900D92F0
S1130070A636B107D9F720E0A6E6B0E001C01D928C
S1130080AC3CB207E1F70E9449000C94E6010C94E1
S113009000000E9475000E947A0084E090E00E94B3
S11300A0780100E011E0809164000E948300809157
S11300B064000E94A30080916400882391F0C0E052
S11300C0D02F0E94DB00682F8C2F0E941701811112
S11300D001C0D12FCF5F80916400C81790F3D11174
S11300E0E2CF8F5F80936400DECFB89AB99ABA9A50
S11300F0BB9A0895A098A89AA198A99AA298AA9A96
S1130100A398AB9A08950F931F93CF93DF93082F6F
S113011010E00115110591F0C6E6D0E00A591F4F11
S11301200E94730183709078992324F401978C6F53
S11301309F6F01968993C017D10791F7DF91CF91F3
S11301401F910F910895682F70E06115710591F169
S1130150E6E6F0E06A597F4F41E050E028B3DF0162
S1130160CA01019002C0880F991F0A94E2F7822BFA
S113017088BB2FEF84E39CE0215080409040E1F75E
S113018000C0000098B39A010C9002C0220F331FE4
S11301900A94E2F7822F8095892388BB2FEF84E3AA
S11301A09CE0215080409040E1F700C00000E61739
S11301B0F707A1F6089598990BC01092CB001092FE
S11301C0CA008FE19EE40197F1F700C000002CC043
S11301D099990DC081E090E09093CB008093CA0080
S11301E08FE19EE40197F1F700C000001DC09A99C9
S11301F00DC082E090E09093CB008093CA008FE121
S11302009EE40197F1F700C000000EC09B99D3CF84
S113021083E090E09093CB008093CA008FE19EE44A
S11302200197F1F700C000008091CA000895E82FFB
S1130230F0E0EA59FF4F208130E081E04091CA00AC
S11302405091CB002417350709F080E008958F9270
S11302509F92AF92BF92CF92DF92EF92FF92CF9391
S1130260DF93EC01688179818A819B816115710535
S11302708105910521F464E279ED8BE597E02DE1A8
S113028033EF41E050E00E94830149015A019B0190
S1130290AC01A7EAB1E40E94A2016B017C01ACEEBF
S11302A0B4EFA50194010E94B001DC01CB018C0DD7
S11302B09D1DAE1DBF1DB7FF03C00197A109B04826
S11302C088839983AA83BB839F77DF91CF91FF9023
S11302D0EF90DF90CF90BF90AF909F908F90089554
S11302E00E942701089580E690E00E942701089566
S11302F0A0E0B0E08093600090936100A09362005E
S1130300B09363000895052E97FB1EF400940E9499
S11303109A0157FD07D00E94B50107FC03D04EF4A3
S11303200C949A0150954095309521953F4F4F4F2D
S11303305F4F089590958095709561957F4F8F4F8D
S11303409F4F08950E94D701A59F900DB49F900DD3
S1130350A49F800D911D11240895B7FF0C94A20150
S11303600E94A201821B930B0895A1E21A2EAA1BDC
S1130370BB1BFD010DC0AA1FBB1FEE1FFF1FA21751
S1130380B307E407F50720F0A21BB30BE40BF50B4E
S1130390661F771F881F991F1A9469F760957095D7
S11303A0809590959B01AC01BD01CF010895A29F5A
S11303B0B001B39FC001A39F700D811D1124911D35
S11303C0B29F700D811D1124911D0895F894FFCFE3
S10903D001000000010021
S9030000FC
