S00D000073696D6F6E2E73726563F1
S11300000C942A000C9447000C9447000C9447006D
S11300100C9447000C9447000C9447000C94470040
S11300200C9447000C9447000C9447000C94470030
S11300300C9447000C9447000C9447000C94470020
S11300400C9447000C9447000C9447000C94470010
S11300500C94470011241FBECFE5D8E0DEBFCDBF0E
S113006010E0A0E6B0E0EEEDF3E002C005900D92E2
S1130070A636B107D9F720E0A6E6B0E001C01D928C
S1130080AA3CB207E1F70E9449000C94ED010C94DC
S113009000000E9486000E948B0083E090E00E9492
S11300A07F018FEF8ABBDFEF11E0809164000E9433
S11300B09400809164000E94B400809164008823BD
S11300C0D1F0C0E00E94EC00811101C0DBBB2FEF36
S11300D034E39CE0215030409040E1F700C0000040
S11300E0682F8C2F0E942001882359F0CF5F8091C4
S11300F06400C81738F3809164008F5F80936400B4
S1130100D4CF109364000E942901CFCFB89AB99A32
S1130110BA9ABB9A0895A098A89AA198A99AA29865
S1130120AA9AA398AB9A08950F931F93CF93DF9342
S11301308823A9F0C6E6D0E08150082F10E00959C1
S11301401F4F0E947A0183709078992324F40197B9
S11301508C6F9F6F01968993C017D10791F7DF9138
S1130160CF911F910F910895682F70E0611571056B
S113017091F1E6E6F0E06A597F4F41E050E028B3A0
S1130180DF01CA01019002C0880F991F0A94E2F7A7
S1130190822B88BB2FEF84E39CE021508040904069
S11301A0E1F700C0000098B39A010C9002C0220F3E
S11301B0331F0A94E2F7822F8095892388BB2FEF9F
S11301C084E39CE0215080409040E1F700C00000AF
S11301D0E617F707A1F6089598990BC02FE788E36F
S11301E091E0215080409040E1F700C0000080E0A1
S11301F0089599990BC02FE788E391E0215080403E
S11302009040E1F700C0000081E008959A990BC086
S11302102FE788E391E0215080409040E1F700C04F
S1130220000082E008959B99D7CF2FE788E391E0FF
S1130230215080409040E1F700C0000083E0089521
S1130240E82FF0E0EA59FF4F81E09081961380E0B7
S11302500895C09AC19AC29AC39A08958F929F92A0
S1130260AF92BF92CF92DF92EF92FF92CF93DF9340
S1130270EC01688179818A819B8161157105810511
S1130280910521F464E279ED8BE597E02DE133EFFC
S113029041E050E00E948A0149015A019B01AC01EE
S11302A0A7EAB1E40E94A9016B017C01ACEEB4EFB2
S11302B0A50194010E94B701DC01CB018C0D9D1DA9
S11302C0AE1DBF1DB7FF03C00197A109B0488883C5
S11302D09983AA83BB839F77DF91CF91FF90EF909F
S11302E0DF90CF90BF90AF909F908F9008950E9421
S11302F02E01089580E690E00E942E010895A0E06A
S1130300B0E08093600090936100A0936200B0938A
S113031063000895052E97FB1EF400940E94A1012A
S113032057FD07D00E94BC0107FC03D04EF40C9487
S1130330A10150954095309521953F4F4F4F5F4F08
S1130340089590958095709561957F4F8F4F9F4F3D
S113035008950E94DE01A59F900DB49F900DA49F67
S1130360800D911D11240895B7FF0C94A9010E94DA
S1130370A901821B930B0895A1E21A2EAA1BBB1B91
S1130380FD010DC0AA1FBB1FEE1FFF1FA217B3075D
S1130390E407F50720F0A21BB30BE40BF50B661F73
S11303A0771F881F991F1A9469F760957095809537
S11303B090959B01AC01BD01CF010895A29FB001AE
S11303C0B39FC001A39F700D811D1124911DB29F85
S11103D0700D811D1124911D0895F894FFCF26
S10903DE01000000010013
S9030000FC
