:100000000C942A000C9447000C9447000C94470071
:100010000C9447000C9447000C9447000C94470044
:100020000C9447000C9447000C9447000C94470034
:100030000C9447000C9447000C9447000C94470024
:100040000C9447000C9447000C9447000C94470014
:100050000C94470011241FBECFE5D8E0DEBFCDBF12
:1000600010E0A0E6B0E0E0EAF3E002C005900D92F7
:10007000A636B107D9F720E0A6E6B0E001C01D9290
:10008000AC3CB207E1F70E9449000C94CE010C94FD
:1000900000000E9475000E947A0084E090E00E94B7
:1000A000600100E011E0809164000E948300809173
:1000B00064000E94A30080916400882391F0C0E056
:1000C000D02F0E94DB00682F8C2F0E94FF0081112F
:1000D00001C0D12FCF5F80916400C81790F3D11178
:1000E000E2CF8F5F80936400DECFB89AB99ABA9A54
:1000F000BB9A0895A098A89AA198A99AA298AA9A9A
:10010000A398AB9A08950F931F93CF93DF93082F73
:1001100010E00115110591F0C6E6D0E00A591F4F15
:100120000E945B0183709078992324F401978C6F6F
:100130009F6F01968993C017D10791F7DF91CF91F7
:100140001F910F910895682F70E06115710591F16D
:10015000E6E6F0E06A597F4F41E050E028B3DF0166
:10016000CA01019002C0880F991F0A94E2F7822BFE
:1001700088BB2FEF84E39CE0215080409040E1F762
:1001800000C0000098B39A010C9002C0220F331FE8
:100190000A94E2F7822F8095892388BB2FEF84E3AE
:1001A0009CE0215080409040E1F700C00000E6173D
:1001B000F707A1F60895B09905C01092CB001092F0
:1001C000CA001AC0B19907C081E090E09093CB00BB
:1001D0008093CA0011C0B29907C082E090E090936A
:1001E000CB008093CA0008C0B399E5CF83E090E0CC
:1001F0009093CB008093CA008091CA000895E82FA5
:10020000F0E0EA59FF4F208130E081E04091CA00E0
:100210005091CB002417350709F080E008958F92A4
:100220009F92AF92BF92CF92DF92EF92FF92CF93C5
:10023000DF93EC01688179818A819B816115710569
:100240008105910521F464E279ED8BE597E02DE1DC
:1002500033EF41E050E00E946B0149015A019B01DC
:10026000AC01A7EAB1E40E948A016B017C01ACEE0B
:10027000B4EFA50194010E949801DC01CB018C0D23
:100280009D1DAE1DBF1DB7FF03C00197A109B0485A
:1002900088839983AA83BB839F77DF91CF91FF9057
:1002A000EF90DF90CF90BF90AF909F908F90089588
:1002B0000E940F01089580E690E00E940F010895CA
:1002C000A0E0B0E08093600090936100A093620092
:1002D000B09363000895052E97FB1EF400940E94CE
:1002E000820157FD07D00E949D0107FC03D04EF408
:1002F0000C94820150954095309521953F4F4F4F7A
:100300005F4F089590958095709561957F4F8F4FC1
:100310009F4F08950E94BF01A59F900DB49F900D1F
:10032000A49F800D911D11240895B7FF0C948A019C
:100330000E948A01821B930B0895A1E21A2EAA1B28
:10034000BB1BFD010DC0AA1FBB1FEE1FFF1FA21785
:10035000B307E407F50720F0A21BB30BE40BF50B82
:10036000661F771F881F991F1A9469F7609570950B
:10037000809590959B01AC01BD01CF010895A29F8E
:10038000B001B39FC001A39F700D811D1124911D69
:10039000B29F700D811D1124911D0895F894FFCF17
:0603A00001000000010055
:00000001FF
