:100000000C942A000C9447000C9447000C94470071
:100010000C9447000C9447000C9447000C94470044
:100020000C9447000C9447000C9447000C94470034
:100030000C9447000C9447000C9447000C94470024
:100040000C9447000C9447000C9447000C94470014
:100050000C94470011241FBECFE5D8E0DEBFCDBF12
:1000600010E0A0E6B0E0E2E5F5E002C005900D92F8
:10007000A836B107D9F720E0A8E6B0E001C01D928C
:10008000AC3CB207E1F70E9449000C94A7020C9423
:1000900000000E948A000E948F000E94980083E066
:1000A00090E00E9439028FEF8ABBDFEF11E0809170
:1000B00064000E949A00809164000E94A5018091D2
:1000C00064008823D1F0C0E00E94DD00811101C0EE
:1000D000DBBB2FEF34E39CE0215030409040E1F750
:1000E00000C00000682F8C2F0E94BA00882369F09E
:1000F000CF5F80916400C81738F30E941D01809182
:1001000064008F5F80936400D2CF0E9465011093DA
:100110006400CDCFB89AB99ABA9ABB9A0895A098BC
:10012000A89AA198A99AA298AA9AA398AB9A089576
:10013000BC9A08950F931F93CF93DF938823A9F060
:10014000C8E6D0E08150082F10E007591F4F0E94E9
:10015000340283709078992324F401978C6F9F6FF9
:1001600001968993C017D10791F7DF91CF911F9125
:100170000F910895E82FF0E0E859FF4F81E090815A
:10018000961380E0089523B330E0082E02C0359521
:1001900027950A94E2F720FD0EC021E030E002C06E
:1001A000220F331F8A95E2F7C49A83B390E082232B
:1001B0009323892BC9F3C498089598990EC080E0C1
:1001C0000E94C3002FE788E391E0215080409040D7
:1001D000E1F700C0000080E0089599990EC081E029
:1001E0000E94C3002FE788E391E0215080409040B7
:1001F000E1F700C0000081E008959A990EC082E006
:100200000E94C3002FE788E391E021508040904096
:10021000E1F700C0000082E008959B99CECF83E013
:100220000E94C3002FE788E391E021508040904076
:10023000E1F700C0000083E00895E3E061E070E0D2
:1002400034C048B39B01082E02C0220F331F0A940A
:10025000E2F7242B28BB01968530910591F72FEF0B
:1002600080E792E0215080409040E1F700C000001C
:1002700080E090E038B3AB01082E02C0440F551F58
:100280000A94E2F7242F2095232328BB019685307A
:10029000910581F72FEF80E792E021508040904058
:1002A000E1F700C00000E15019F080E090E0C9CF14
:1002B00080916500909166008233910528F0C29785
:1002C0009093660080936500089580E090E061E07F
:1002D00070E048B39B01082E02C0220F331F0A941E
:1002E000E2F7242B28BB01968530910591F72FEF7B
:1002F00084E39CE0215080409040E1F700C0000082
:1003000080E090E061E070E038B3AB01082E02C0FD
:10031000440F551F0A94E2F7242F2095232328BB6E
:1003200001968530910581F70895009769F020E0E6
:1003300030E0EFECF7E03197F1F700C000002F5FFD
:100340003F4F82179307A9F70895CF92DF92EF925C
:10035000FF920F931F93CF93DF9390E0009779F173
:10036000C8E6D0E09C0128593F4F790101E010E038
:1003700028B36E01C801099002C0880F991F0A9422
:10038000E2F7822B88BB80916500909166000E9405
:10039000950198B39801F601008002C0220F331F27
:1003A0000A94E2F7822F8095892388BB80916500AB
:1003B000909166000E949501CE15DF05C9F6DF9188
:1003C000CF911F910F91FF90EF90DF90CF90089504
:1003D0008F929F92AF92BF92CF92DF92EF92FF9255
:1003E000CF93DF93EC01688179818A819B816115CC
:1003F00071058105910521F464E279ED8BE597E0C3
:100400002DE133EF41E050E00E94440249015A01DE
:100410009B01AC01A7EAB1E40E9463026B017C017D
:10042000ACEEB4EFA50194010E947102DC01CB0196
:100430008C0D9D1DAE1DBF1DB7FF03C00197A10907
:10044000B04888839983AA83BB839F77DF91CF913C
:10045000FF90EF90DF90CF90BF90AF909F908F90E4
:1004600008950E94E801089580E690E00E94E80166
:100470000895A0E0B0E08093600090936100A093A5
:100480006200B09363000895052E97FB1EF400945C
:100490000E945B0257FD07D00E94760207FC03D042
:1004A0004EF40C945B0250954095309521953F4F4A
:1004B0004F4F5F4F089590958095709561957F4F50
:1004C0008F4F9F4F08950E949802A59F900DB49F53
:1004D000900DA49F800D911D11240895B7FF0C94D9
:1004E00063020E946302821B930B0895A1E21A2EFD
:1004F000AA1BBB1BFD010DC0AA1FBB1FEE1FFF1FC8
:10050000A217B307E407F50720F0A21BB30BE40B17
:10051000F50B661F771F881F991F1A9469F760955E
:100520007095809590959B01AC01BD01CF01089518
:10053000A29FB001B39FC001A39F700D811D112424
:10054000911DB29F700D811D1124911D0895F89485
:02055000FFCFDB
:080552000100000001E80300B4
:00000001FF
