S00D000073696D6F6E2E73726563F1
S11300000C942A000C9447000C9447000C9447006D
S11300100C9447000C9447000C9447000C94470040
S11300200C9447000C9447000C9447000C94470030
S11300300C9447000C9447000C9447000C94470020
S11300400C9447000C9447000C9447000C94470010
S11300500C94470011241FBECFE5D8E0DEBFCDBF0E
S113006010E0A0E6B0E0EAE3F5E002C005900D92EE
S1130070A636B107D9F720E0A6E6B0E001C01D928C
S1130080AA3CB207E1F70E9449000C949B020C942D
S113009000000E948A000E948F000E94980083E062
S11300A090E00E942D028FEF8ABBDFEF11E0809178
S11300B064000E949A00809164000E949D018091D6
S11300C064008823D1F0C0E00E94DD00811101C0EA
S11300D0DBBB2FEF34E39CE0215030409040E1F74C
S11300E000C00000682F8C2F0E94BA00882369F09A
S11300F0CF5F80916400C81738F30E941D0180917E
S113010064008F5F80936400D2CF0E9460011093DB
S11301106400CDCFB89AB99ABA9ABB9A0895A098B8
S1130120A89AA198A99AA298AA9AA398AB9A089572
S1130130BC9A08950F931F93CF93DF938823A9F05C
S1130140C6E6D0E08150082F10E009591F4F0E94E5
S1130150280283709078992324F401978C6F9F6F01
S113016001968993C017D10791F7DF91CF911F9121
S11301700F910895E82FF0E0EA59FF4F81E0908154
S1130180961380E0089523B330E0082E02C035951D
S113019027950A94E2F720FD0EC021E030E002C06A
S11301A0220F331F8A95E2F7C49A83B390E0822327
S11301B09323892BC9F3C498089598990EC080E0BD
S11301C00E94C3002FE788E391E0215080409040D3
S11301D0E1F700C0000080E0089599990EC081E025
S11301E00E94C3002FE788E391E0215080409040B3
S11301F0E1F700C0000081E008959A990EC082E002
S11302000E94C3002FE788E391E021508040904092
S1130210E1F700C0000082E008959B99CECF83E00F
S11302200E94C3002FE788E391E021508040904072
S1130230E1F700C0000083E00895E3E061E070E0CE
S113024034C048B39B01082E02C0220F331F0A9406
S1130250E2F7242B28BB01968530910591F72FEF07
S113026080E792E0215080409040E1F700C0000018
S113027080E090E038B3AB01082E02C0440F551F54
S11302800A94E2F7242F2095232328BB0196853076
S1130290910581F72FEF80E792E021508040904054
S11302A0E1F700C00000E15019F080E090E0C9CF10
S11302B080916500823318F082538093650008951D
S11302C080E090E061E070E048B39B01082E02C03A
S11302D0220F331F0A94E2F7242B28BB01968530A2
S11302E0910591F72FEF84E39CE0215080409040EA
S11302F0E1F700C0000080E090E061E070E038B316
S1130300AB01082E02C0440F551F0A94E2F7242FB4
S11303102095232328BB01968530910581F7089504
S1130320882351F090E0EFECF7E03197F1F700C04B
S113033000009F5F8913F7CF0895CF92DF92EF9269
S1130340FF920F931F93CF93DF9390E0009759F19F
S1130350C6E6D0E09C012A593F4F790101E010E044
S113036028B36E01C801099002C0880F991F0A942E
S1130370E2F7822B88BB809165000E94900198B3BC
S11303809801F601008002C0220F331F0A94E2F79D
S1130390822F8095892388BB809165000E949001FB
S11303A0CE15DF05E9F6DF91CF911F910F91FF90F4
S11303B0EF90DF90CF9008958F929F92AF92BF926B
S11303C0CF92DF92EF92FF92CF93DF93EC0168819B
S11303D079818A819B81611571058105910521F4DB
S11303E064E279ED8BE597E02DE133EF41E050E0F5
S11303F00E94380249015A019B01AC01A7EAB1E409
S11304000E9457026B017C01ACEEB4EFA50194018C
S11304100E946502DC01CB018C0D9D1DAE1DBF1D2C
S1130420B7FF03C00197A109B04888839983AA83C1
S1130430BB839F77DF91CF91FF90EF90DF90CF90B8
S1130440BF90AF909F908F9008950E94DC01089513
S113045080E690E00E94DC010895A0E0B0E0809383
S1130460600090936100A0936200B09363000895CC
S1130470052E97FB1EF400940E944F0257FD07D0EF
S11304800E946A0207FC03D04EF40C944F0250956C
S11304904095309521953F4F4F4F5F4F089590956C
S11304A08095709561957F4F8F4F9F4F08950E945F
S11304B08C02A59F900DB49F900DA49F800D911D5B
S11304C011240895B7FF0C9457020E945702821B0F
S11304D0930B0895A1E21A2EAA1BBB1BFD010DC0AC
S11304E0AA1FBB1FEE1FFF1FA217B307E407F507E0
S11304F020F0A21BB30BE40BF50B661F771F881FBC
S1130500991F1A9469F760957095809590959B0151
S1130510AC01BD01CF010895A29FB001B39FC001FA
S1130520A39F700D811D1124911DB29F700D811D1B
S10D05301124911D0895F894FFCFE3
S109053A0100000001E8CD
S9030000FC
